:100000000C9410030C9457030C9457030C9457034F
:100010000C9457030C9457030C9457030C945703F8
:100020000C9457030C9457030C94C2200C94952104
:100030000C9491190C9457030C9457030C94570388
:100040000C9457030C9457030C9457030C945703C8
:100050000C9457030C94F9190C9457030C94570300
:100060000C9457030C9457030C9457030C945703A8
:100070000C9457030C9457030C9457030C94570398
:100080000C9457030C9457030C9457030C94570388
:100090000C9457030C9457030C9457030C94570378
:1000A0000C9457030C9457030C94570301E101334C
:1000B000023302E101E10126022602E101E101270A
:1000C000022702E101E1012F022F02E101E10126F5
:1000D000022602E101E10133023302E101E10127DD
:1000E000022702E101E10131023102E101E10133C4
:1000F000023302E101E10124022402E101E10130C5
:10010000023002E10133023301E10133023302E143
:100110000001E10136023602E101E1013702370256
:10012000E100012F022F0130023001500250000186
:10013000E1012F022F02E101E10130023002E10171
:100140005002500001E10126022602E101E10127EF
:10015000022702E1015002500014001A00090013A6
:1001600000050000000D000F0018001C003374048F
:10017000001500160017000A00000010001100080A
:10018000000C0012001B620600070019001D002B66
:10019000410E000B00360037003871015508580435
:1001A000552A432C42347228424E43E700314529F8
:1001B0004933001C0018000F000D0000000500135B
:1001C0000009001A00140012000C000800110010B1
:1001D0000000000A00170016001500040038003760
:1001E0000036000B000E0001001D0019000700067C
:1001F000001B000100340001004E00280001002C0B
:10020000424B000100010001001E001F00200021E0
:10021000002200000023002400250026002700A85B
:1002200000AA00A9000C57AE000000500051005277
:10023000004F0005572D002E023500E3001D01017F
:100240000009574A00095749003100010001000127
:1002500000E300010001000100E3000100010001D2
:10026000001E021F0220022102220200002302249B
:100270000225022602270246005000510052004F7C
:100280000000000C574B00A900005756052D022E08
:100290000035024A004D004C000130003005302F7F
:1002A0000030000100010001000100E3004C00E308
:1002B000000100010001000100000000000000003A
:1002C000000000000000000000000000000000002E
:1002D000000000000000000000000000000000001E
:1002E000000000000000000000000000000000000E
:1002F00000000000000000000000000000000000FE
:1003000000000000000000000000000000000000ED
:10031000000D570E570F5710571157000012571363
:10032000571457155716577000710072007300006C
:100330000000000000470000000000145C00000006
:1003400000000000000000010000000000000000AC
:10035000003900010001000100010001000100015D
:100360000001000100010001000000000000000089
:10037000000000000000000000000000000000007D
:10038000000000000000000000000000000000006D
:10039000000000000000000000000000000000005D
:1003A000000000000000000000000000000000004D
:1003B000000000000000000000000000000000003D
:1003C00000130014001A0008001500000017001C9C
:1003D0000018000C0012003300040016000700098A
:1003E0000000000A000B000D000E000F0038001D79
:1003F000001B000600190001000500110010003666
:10040000000A570100010001000100010001000184
:10041000000100010001000100290426002500243C
:10042000002300000001300030F0000030023027CF
:10043000001F0020002100220000000530F200F122
:1004400000F300FE001E00270028000030F800F531
:1004500000FB00FA00F900FC00053001000100017A
:10046000000100F400F500F400F500F600FD0001C5
:100470000046040430A5006600005C0000005C1526
:100480000008000C004604065305530853035302AA
:1004900053000002531600180005000653033007EE
:1004A000530000000000000100B300B2000000078C
:1004B00053033009580553085303530253010002F4
:1004C0005303530853085301000E03410074007294
:1004D0000065007500730000001803540065006398
:1004E0000068006E006F006D0061006E00630079AF
:1004F0000000000403090409025400030100A0FAEB
:100500000904000001030101000921110100012279
:1005100040000705810308000A09040100010301E6
:100520000200092111010001224D00070582030884
:10053000000A090402000103000000092111010062
:10054000012236000705830308000A12011001008A
:100550000000080912E5A1080001020001050109D7
:1005600080A10185021601002603001A81002A835A
:1005700000751095018100C0050C0901A1018503DA
:10058000160100269C021A01002A9C027510950192
:100590008100C005010902A1010901A10005091995
:1005A0000129051500250195057501810295017543
:1005B0000381010501093009311581257F950275F7
:1005C00008810609381581257F9501750881060582
:1005D0000C0A38021581257F950175088106C0C077
:1005E00005010906A101050719E029E71500250104
:1005F00095087501810295017508810105081901A9
:10060000290595057501910295017503910105076D
:10061000190029FF150026FF00950675088100C006
:1006200011241FBECFEFDAE0DEBFCDBF04B603FE5C
:1006300027C08091170490911804A0911904B091DB
:100640001A048730904BA740B04BD1F41092170496
:10065000109218041092190410921A0414BE84B750
:10066000877F84BF0FB6F894A89580916000886159
:1006700080936000109260000FBEE0E0F8E30995FF
:1006800013E0A0E0B1E0EEE5F7E402C005900D92C2
:10069000AE33B107D9F724E0AEE3B3E001C01D9259
:1006A000A731B207E1F70E94F91D0C94AD230C9419
:1006B000000081E00C94D809FC018281882309F4B0
:1006C0002FC06B3108F02CC0E62FF0E0E659FC4F4C
:1006D0000C945D239E03850388038E0393038B0391
:1006E0009003900390039003900390039003900372
:1006F0009003900390039003900390039003900362
:10070000900390039A0396039C038FE291E008956F
:1007100082E291E0089581E191E008950E94BE1186
:1007200090E080E008958CEA90E0089582E00E94D5
:10073000D809F6CF84E0FBCF80E0F9CF84E491E0E4
:1007400008950F931F93CF93DF938C01EB019A953C
:1007500081159F41B8F410FF03C080EEFB0109959D
:1007600011FF03C081EEFE01099512FF03C082EE66
:10077000FE01099513FF03C083EEFE0109950115E3
:10078000104128F4DF91CF911F910F91089584EECD
:10079000FE01099585EEFE01099586EEFE0109959B
:1007A00087EEFE01DF91CF911F910F910994877021
:1007B00091E001C0990F8A95EAF7892F0E9462188B
:1007C0000C9494180C94D703877091E001C0990F92
:1007D0008A95EAF7892F0E9468180C9494180C9453
:1007E000E403CF93DF93EC01805E9109089720F03A
:1007F00067ED73E0209711F462EE73E0CE010E9482
:10080000A1038C2FDF91CF910C947C0DCF93DF93BC
:10081000EC010E94730ECE01805E9109089720F0D2
:1008200064EE73E0209711F46FEE73E0CE01DF9178
:10083000CF910C94A10381E0089581E008950C9478
:100840001D040E94BE112FEF84E39CE021508040E4
:100850009040E1F700C0000087E797E79093010818
:10086000809300080C941F1AFF920F931F93CF934D
:10087000DF938C01FC01C081D181809179038111CA
:100880004EC08281882309F445C0CE010E943217F0
:10089000F82E682FCE010E94D816BE018F2D0E941F
:1008A000CF05EC01B8010E941F04882309F468C039
:1008B000B801CE010E94440B882309F461C0B8013D
:1008C000CE010E943108882309F45AC0B801CE0134
:1008D0000E94B409882309F453C0C531FCE5DF0741
:1008E00009F425C108F5C1308CE5D80709F44FC0DB
:1008F00008F05FC0C115DC45F1F181E0809343034E
:1009000080934403C801DF91CF911F910F91FF9015
:100910000C941B04CE010E940717F82EBECFCE0107
:100920000E943217BE01BBCFC43D2CE5D20709F4AB
:10093000DBC0A0F4C33DDC4501F7F80182818823C8
:1009400009F4BBC0109243030E94C3199093400363
:1009500080933F0382E00E94C20E12C0C73DFCE5B7
:10096000DF07F9F0C83DDC4541F6F80182818823B4
:1009700039F082E01BC0F801828181110E942104BC
:1009800080E0DF91CF911F910F91FF900895F801C2
:1009900082818823A9F38091EA0381608093EA032E
:1009A000EFCFF8018281882359F380E00E948A1EEC
:1009B000E7CFF8018281882309F4A4CF0E94EB18C5
:1009C000811102C00E94D1180E94FE1890E09093FD
:1009D000090480930804FE01E350FC45809108045B
:1009E0008160E231F105C8F4E850FB4F0C945D23BF
:1009F0000A0516051A051E05220526052A052E05D7
:100A0000320536053A053E05420546054A054E05BE
:100A100052055605809108048260809308048091F5
:100A200008040E9402190E94BE11AACF80910804F6
:100A30008460F3CF809108048860EFCF8091080430
:100A40008061EBCF809108048062E7CF8091080439
:100A50008064E3CF809108048068DFCF8091080430
:100A60008460EACF809108048E7FD7CF80910804FC
:100A70008D7FD3CF809108048B7FCFCF80910804E6
:100A8000877FCBCF809108048F7EC7CF80910804E9
:100A90008F7DC3CF809108048F7BBFCF80910804E6
:100AA0008F77BBCF809108048B7FEACF90910804A9
:100AB000892F97FB87F98058B0CF8091430381112C
:100AC0000FC080913F03909140030E94CF198C3258
:100AD000914030F486E20E947C0D86E20E94730E03
:100AE00082E00E94C90E4CCFF8018281882351F028
:100AF000109244030E94C3199093420380934103D0
:100B000080E229CF8091440381110FC0809141037D
:100B1000909142030E94CF198C32914030F487E2C9
:100B20000E947C0D87E20E94730E80E2DACF0E9461
:100B30004E18F8019281992381F08A7A91E009F4A4
:100B400090E090933E03811106C089E20E94A217B3
:100B50000E949418D2CE85E3F9CF80913E03811193
:100B600004C089E20E94A917F3CF85E3FBCF0C9460
:100B700080080E94E20B0C948308882339F090E0EF
:100B80008A3010F44D9608950697089587E290E014
:100B9000089508950C94C9050C94CA050895972FDB
:100BA00070E02BE0929F600D711D1124FB019CE20F
:100BB000899FE00DF11D1124EE0FFF1FE75AFE4F34
:100BC000859194910895FC01EE0FFF1FE753FB4FB1
:100BD000859194910895CF93DF930E94CF050E9451
:100BE0008307EC018115904408F094C0C11580E39F
:100BF000D80708F005C1C03ED10508F071C0C03C5F
:100C0000D10508F0ECC0C83AD10580F4C53AD10549
:100C100008F0E9C0C130D10509F46EC020F0C4303D
:100C2000D10508F069C0D0E0C0E066C0CD3BD10579
:100C3000D0F7C83AD10509F427C1C93AD10509F45A
:100C400026C1CA3AD10509F425C1CB3AD10509F428
:100C500024C1CC3AD10509F423C1CB3BD10509F419
:100C600022C1CC3BD10509F421C1CD3AD10509F40B
:100C700020C1C03BD10509F41FC1CE3AD10509F40A
:100C80001EC1CF3AD10509F41DC1C13BD10509F4FC
:100C90001CC1C23BD10509F41BC1C33BD10509F4FA
:100CA0001AC1C43BD10509F419C1C53BD10509F4EA
:100CB00018C1C63BD10509F417C1C73BD10509F4DA
:100CC00016C1C83BD10509F415C1C93BD10509F4CA
:100CD00014C1CA3BD10509F013C1CAE2D6E40CC065
:100CE000CF3FD10509F060F4C03FD10508F086C0C0
:100CF000C83ED10508F097CFCE01DF91CF9108957E
:100D0000CE019F70C11520E2D207B0F30E94E30527
:100D1000EC01F2CFC11584E5D807A0F5C11523E594
:100D2000D20708F08EC0C11581E5D80708F5C115B6
:100D300020E5D20708F46EC0CE0154E09695879561
:100D40005A95E1F783709C2F937021E030E002C048
:100D5000220F331F9A95E2F73C68382BC695C6954B
:100D6000C37080E2C89FE0011124C22BD32BC4CFF3
:100D7000C11582E5D80708F050C0DC2FCC27C16F21
:100D8000D06ABACFC11526E5D20758F49C2F882720
:100D9000C115D54508F469C0EC01CC27DF71D062DC
:100DA000ABCFC11588E5D80708F43DCFC11529E5BB
:100DB000D20708F45EC0CE0190568115904208F02B
:100DC00032CF8D2F8F710E940308DD27D06290E013
:100DD000982F882788279F71C82BD92B8DCFCE01BC
:100DE000805C910993CFC53AD10509F447C0C63A52
:100DF000D10509F446C0C3E8D0E47ECFD0657CCFEE
:100E0000CE019927D3FF03C0EC01D86C75CFEC015C
:100E1000D06C72CFDF70D06A6FCFCE01837099270C
:100E200021E030E002C0220F331F8A95E2F7C69519
:100E3000C69580E2C89FE0011124C22BD32BDC6849
:100E40005BCFCE018370992721E030E002C0220FF2
:100E5000331F8A95E2F7C695C69580E2C89FE001E8
:100E60001124C22BD32BDA6847CFEC01C46FD06AB0
:100E700043CFDC2FCC27C06FD06A3ECFC1E8D0E48F
:100E80003BCFC2E8D0E438CFC2EED4E435CFC9EED0
:100E9000D4E432CFCAEED4E42FCFC5EBD4E42CCFC8
:100EA000C6EBD4E429CFC3EBD4E426CFC4EBD4E41F
:100EB00023CFC7EBD4E420CFCCECD4E41DCFCDECD2
:100EC000D4E41ACFC3E8D5E417CFCAE8D5E414CFE9
:100ED000C2E9D5E411CFC4E9D5E40ECFC1E2D6E42E
:100EE0000BCFC3E2D6E408CFC4E2D6E405CFC5E217
:100EF000D6E402CFC6E2D6E4FFCEC7E2D6E4FCCE0B
:100F0000C0E0D4E4F9CE8238910549F1B0F48133E0
:100F1000910509F45CC048F48932910509F452C086
:100F20008A32910509F458C008958533910509F472
:100F300044C08933910599F00895833E910531F1BC
:100F400038F4803E910591F0823E9105B1F008950C
:100F5000863E910511F1873E910541F1089520915A
:100F600008042370C9F080EE90E0089520910804F1
:100F700020FF12C089E390E008952091080422FF29
:100F80000BC024FF2EC090E080E00895209108045B
:100F900022FD2AC024FDF7CF08952091080423FFE5
:100FA000FBCF24FDF0CF87EE90E008952091080458
:100FB00023FFF0CF86EE90E008952091080425FDF0
:100FC00016C008952091080425FD14C008952091AD
:100FD000080426FD12C008952091080426FD10C0C3
:100FE000089583EE90E0089582EE90E0089589E2FE
:100FF00090E0089585E390E008958AE290E00895F6
:1010000081E390E0C9CFCF93C82F0E94FE18282F0C
:1010100030E0309309042093080482FF06C09C2F1F
:101020009871983079F4C77FC46083FF06C09C2F05
:101030009871983171F4C77EC46184FDC77E8C2F8E
:10104000CF9108959C2F9471943079F7CB7FC8602D
:10105000ECCF9C2F9471943181F7CB7EC861EDCF9A
:1010600008950F931F93CF938C01FB01828181110F
:1010700006C0C1E08C2FCF911F910F910895C091B0
:101080005203C11125C006311C4599F70E94300852
:1010900081E0809352030E94C3199093510380937F
:1010A000500310924503109247031092460310928A
:1010B00049031092480310924B0310924A03109276
:1010C0004D0310924C0310924F0310924E03D2CF57
:1010D00080915003909151030E94CF19883C910553
:1010E00040F680914503E82FF0E0EE0FFF1FEA5B2A
:1010F000FC4F118300838F5F80934503C0E0BACF1C
:101100000C94590308950C948208CF93DF9385B70C
:10111000806885BF85B7806885BFABE2B3E04FE2EA
:1011200053E0C1E0D0E08D91E82FE295EF70F0E060
:1011300061A18F709E0101C0220F8A95EAF7922F5C
:101140009095962391A382A1822B82A34A175B07D5
:1011500051F7A0E2B3E04BE253E0C1E0D0E08D9163
:10116000E82FE295EF70F0E061A18F709E0101C061
:10117000220F8A95EAF7922F9095962391A382A148
:10118000822B82A34A175B0751F710925C031092DF
:101190005B03109254031092530310925E0310925B
:1011A0005D03109256031092550310926003109243
:1011B0005F0310925803109257031092620310922B
:1011C000610310925A0310925903DF91CF910C944E
:1011D000B7054F925F927F928F929F92AF92BF928C
:1011E000CF92DF92EF92FF920F931F93CF93DF93F3
:1011F000C3E5D3E00BE213E09FE2A92E93E0B92E02
:10120000EE24E394F12C99249394C880D980198218
:101210001882D8018D918D01E82FE295EF70F0E0F2
:1012200091A18F70970101C0220F8A95EAF7892F4B
:10123000822B81A382A1822E8094882182A3B0EA8E
:10124000BA95F1F780E2482E83E0582E90E080E0D6
:10125000D2017D912D01472F42954F7050E0DA0168
:1012600090967C90488159817F70D70102C0AA0F67
:10127000BB1F7A95E2F7BD01672109F068C0B7018D
:10128000082E02C0660F771F0A94E2F7462B572BF1
:101290005983488301968B309105D1F681A188222C
:1012A00081A282A1282B22A388819981C816D90600
:1012B00041F0909263030E94C31990936503809359
:1012C00064032296A016B10609F09FCF80916303B4
:1012D000882351F180916403909165030E94CF1996
:1012E000069710F1809153039091540390935C03FF
:1012F00080935B03809155039091560390935E0316
:1013000080935D03809157039091580390936003FD
:1013100080935F038091590390915A0390936203E5
:1013200080936103109263030E94B90581E0DF910D
:10133000CF911F910F91FF90EF90DF90CF90BF90D2
:10134000AF909F908F907F905F904F90089570E046
:1013500060E09CCFE82FF0E0EE0FFF1FE55AFC4F56
:101360008081918108950895CF93DF93EC01C1307E
:1013700080E8D807C8F0FB0182818823A9F080911A
:101380006603811109C08CE090E00E9477230E94DF
:10139000D80981E0809366030E94DF09CE019F7720
:1013A0000E94AA0A0E945C0A81E0DF91CF91089511
:1013B00080936703682F8CE090E00C948523E09184
:1013C0000E03F0910F0380818093010481FF03C01D
:1013D00081EE0E94730E8091010485FF03C085EEAB
:1013E0000E94730E8091010480FF03C080EE0E9472
:1013F000730E8091010484FF03C084EE0E94730E7B
:101400008091010482FF03C082EE0E94730E8091DE
:10141000010486FF03C086EE0E94730E80910104D2
:1014200083FF03C083EE0E94730E8091010487FF47
:1014300003C087EE0E94730E80916703823049F1EA
:1014400058F4882379F0813089F08FE39CE9019783
:10145000F1F700C000000895843019F18530A9F734
:1014600086EE01C082EE0E947C0DEFCF80EE0E94DE
:101470007C0D81EE0E947C0D88E10E947C0D88E14C
:101480000E94730E81EE0E94730E80EE0E94730E16
:10149000DCCF82EE0E947C0D87E50E947C0D87E503
:1014A000F5CF86EE0E947C0D86EE0E94730E88E1D9
:1014B0000E947C0D88E1EACF80916703813009F4B6
:1014C00043C0E0F18230D1F18530E1F18091010437
:1014D00081FF03C081EE0E947C0D8091010485FF95
:1014E00003C085EE0E947C0D8091010480FF03C043
:1014F00080EE0E947C0D8091010484FF03C084EE85
:101500000E947C0D8091010482FF03C082EE0E9444
:101510007C0D8091010486FF03C086EE0E947C0D45
:101520008091010483FF03C083EE0E947C0D8091B3
:10153000010487FF0EC087EE0C947C0D82EE0E94A2
:10154000730EC4CF86EEFBCF8CE20E947C0D8CE242
:10155000F6CF0895EF92FF921F93CF93DF937C0114
:10156000CCE0D0E0C7010C2E02C0969587950A9476
:10157000E2F7182F1F70812F0E94BD050E947C0D7D
:10158000812F0E94BD050E94730E2497CC3F8FEFE0
:10159000D80741F7DF91CF911F91FF90EF90089509
:1015A000CF93DF93EC018E85811112C081E08E878D
:1015B0008F810E9451180E949418EA81FB816989E9
:1015C0007A89CE010696309719F0DF91CF91099470
:1015D000DF91CF910895FC018081813029F4FB01D6
:1015E000808191810C94F103823021F4FB0182818E
:1015F0009381F8CF0895FC018081813029F4FB01AB
:10160000808191810C940604823021F4FB01828157
:101610009381F8CF08950F931F93CF93DF93EC013D
:101620008F8181112CC00A811B81175523E1209FD6
:10163000C001219F900D1124DC01A050BF4F1496D2
:10164000ED91FC91159751966D917C918A5F9E4F1B
:10165000309709F0099583E1809FF001819FF00D9B
:101660001124E050FF4F87810E9457180E94941860
:1016700018821E8218861092690310926803DF9107
:10168000CF911F910F910895EF92FF920F931F93A7
:10169000CF93DF938C018091680390916903009749
:1016A00071F08017910759F0975523E1289FF001B9
:1016B000299FF00D1124E050FF4F81E08487FB014A
:1016C0004281C80197558F3F910511F008F057C02E
:1016D00020910D03022E000C330B2817390714F448
:1016E00080930D0323E1289F7001299FF00C1124A2
:1016F000E701C050DF4F4D87FB0182818823B9F19C
:10170000198708878E818F5F8E830E94C3199B87FC
:101710008A870E94CE188F83E881F98169897A8946
:10172000C7018A5F9E4F309709F009958091680341
:10173000909169030097B9F080179107A1F0975530
:1017400023E1289FE001299FD00D1124CE01805074
:101750009F4F21E0FC0124870E94D00ACE018A5FBE
:101760009E4F0E940B0B109369030093680381E066
:10177000DF91CF911F910F91FF90EF900895442337
:10178000B1F380910D038F3F91F3C0E0D1E010E001
:1017900000E0FF24F39480910D03082E000C990BB8
:1017A0008017910724F38E81882341F0FC86CE01B7
:1017B0000E94D00ACE0106960E940B0B0F5F1F4FAE
:1017C0006396E9CF0F931F93CF93DF9380910D031F
:1017D000C0E0D3E18F3F91F5DF91CF911F910F9141
:1017E0000895D29FF001D39FF00D1124E050FF4FD8
:1017F000078510890115110511F40CE211E0D29F43
:10180000F001D39FF00D1124E050FF4F8681882313
:10181000A1F0828593850E94CF190817190768F4F3
:10182000CD9F80011124C80180509F4F0E94D00A93
:10183000C8018A5F9E4F0E940B0BCF5F2C2F30E0B8
:1018400080910D03082E000C990B821793074CF61C
:10185000C3CF90936F0380936E030895E0916E035E
:10186000F0916F03309721F00190F081E02D099401
:1018700080E00895E0916E03F0916F03309721F0BE
:101880000280F381E02D09940895E0916E03F091B8
:101890006F03309721F00480F581E02D09940895BD
:1018A00020916C0330916D032817390771F09093E4
:1018B0006D0380936C03E0916E03F0916F0330979A
:1018C00021F00680F781E02D0994089520916A03A4
:1018D00030916B032817390771F090936B03809355
:1018E0006A03E0916E03F0916F03309721F000845A
:1018F000F185E02D0994089508950C947C0C81E005
:1019000008950E94BA190E9485080C94301A5F92BB
:101910006F927F928F929F92AF92BF92CF92DF92FF
:10192000EF92FF920F931F93CF93DF93CDB7DEB764
:101930002A970FB6F894DEBF0FBECDBF0E94E9080C
:101940000E947F0C882309F47AC091E7A92E93E0C6
:10195000B92E10E000E088248394912C502E802F23
:101960000E94AA097C01F501C190D1905F01C816BF
:10197000D90609F45EC08091EA0381FD0E94B30993
:1019800090E080E0CE24DF243401082E02C0660CF3
:10199000771C0A94E2F7960126213721232B09F4BC
:1019A00043C08E835F82E620F72081E0EF2809F4B0
:1019B00080E088870E94C3198160782F9A87898781
:1019C0004E815F8168858A850E94460D000F111F38
:1019D000F801EF58FC4F8081918168267926718249
:1019E00060820E94C31B0E942E0C90917003891785
:1019F000B9F10E942E0C809370032A960FB6F894CA
:101A0000DEBF0FBECDBFDF91CF911F910F91FF9031
:101A1000EF90DF90CF90BF90AF909F908F907F908E
:101A20006F905F900C94CC0501968B30910509F076
:101A3000ABCF0F5F1F4F0430110509F08FCF8FEF31
:101A400089838A831B820E94C3198160782F9D83BA
:101A50008C8349815A816B818D810E94460DC1CF53
:101A60002A960FB6F894DEBF0FBECDBFDF91CF919F
:101A70001F910F91FF90EF90DF90CF90BF90AF90AC
:101A80009F908F907F906F905F900895CF93DF939A
:101A9000CDB7DEB72B970FB6F894DEBF0FBECDBF24
:101AA0004F83588769877A878B871E821D8285E0DE
:101AB000FE013796DE01119601900D928A95E1F7AD
:101AC0000E94EC17882319F082E00E942D180E94D2
:101AD000BF1781110E948D1849815A816B817C81C9
:101AE0008D819E812B960FB6F894DEBF0FBECDBFC1
:101AF000DF91CF910C94AD14882309F4F3C08238A0
:101B0000B9F40E942E0C81FDEDC089E30E94A2175A
:101B10000E9494182FEF81EE94E021508040904075
:101B2000E1F700C0000089E30E94A9170C94941803
:101B30008338A1F40E942E0C80FDD4C083E50E945E
:101B4000A2170E9494182FEF81EE94E0215080405C
:101B50009040E1F700C0000083E5E6CF8438A1F4AF
:101B60000E942E0C82FDBEC087E40E94A2170E9434
:101B700094182FEF81EE94E0215080409040E1F7DF
:101B800000C0000087E4D0CF9CEF980F913A18F482
:101B90000E94A217CBCF90E2980F983050F4877034
:101BA00091E001C0990F8A95EAF7892F0E94511898
:101BB000BDCF9BE5980F933070F4853A31F0863AAB
:101BC00039F083E890E00C94500C81E890E0FBCF72
:101BD00082E890E0F8CF98E5980F953108F082C040
:101BE000883A09F440C0893A09F440C08A3A09F4B5
:101BF00040C08B3A09F440C08C3A09F440C08B3B9A
:101C000009F440C08C3B09F440C08D3A09F440C04F
:101C1000803B09F440C08E3A09F440C08F3A09F481
:101C200040C0813B09F440C0823B09F440C0833B83
:101C300009F440C0843B09F440C0853B09F440C02E
:101C4000863B09F440C0873B09F440C0883B09F457
:101C500040C0893B09F440C08A3B09F440C090E091
:101C600080E00C94660C82EE90E0FBCF89EE90E071
:101C7000F8CF8AEE90E0F5CF85EB90E0F2CF86EBDF
:101C800090E0EFCF83EB90E0ECCF84EB90E0E9CFF6
:101C900087EB90E0E6CF8CEC90E0E3CF8DEC90E02A
:101CA000E0CF83E891E0DDCF8AE891E0DACF82E906
:101CB00091E0D7CF84E991E0D4CF81E292E0D1CF17
:101CC00083E292E0CECF84E292E0CBCF85E292E055
:101CD000C8CF86E292E0C5CF87E292E0C2CF8AE227
:101CE00092E0BFCF0895882309F44BC0823871F485
:101CF0000E942E0C81FF45C089E30E94A2170E941A
:101D0000941889E30E94A9170C949418833859F405
:101D10000E942E0C80FF35C083E50E94A2170E940E
:101D2000941883E5EFCF843859F40E942E0C82FF7B
:101D300028C087E40E94A2170E94941887E4E2CF8B
:101D40009CEF980F913AF0F290E2980F983050F48F
:101D5000877091E001C0990F8A95EAF7892F0E9458
:101D60005718D2CF9BE5980F933020F490E080E095
:101D70000C94500C885A853120F490E080E00C944B
:101D8000660C0895882321F00E9451180C94941831
:101D90000895882321F00E9457180C9494180895F0
:101DA0008F929F92AF92BF92CF92DF92EF92FF926B
:101DB0000F931F93CF93DF936C01D62FC72FFC0196
:101DC000158112951F70028101110E9470180E94E6
:101DD0004718E82E882371F0002331F180E28D0F3F
:101DE000883010F182E00E942D180E94471891E07F
:101DF000E82EE926FC2EF2949FE0F922EF2DF0E088
:101E0000EC5FF04F0C945D23160F160F670F670FF2
:101E1000B40FDC0FBB0FBB0F1E10BB0FB910B910F6
:101E20005C11BB0FBB0F6511E12CE4CF1C2F1F70A1
:101E3000C07F11F01295107F0023A9F0112359F0F3
:101E400080E28D0F883010F0D11109C0812F0E94DF
:101E500051180E9494188D2F0E947C0D14C0812F60
:101E60000E946218F6CF8D2F0E94730E112359F035
:101E700080E28D0F883010F0D11125C0812F0E9493
:101E800057180E949418EE2009F426C20E94E81701
:101E900080FD22C2F60112820E94E2170E943C16C7
:101EA000C6010E9479110E94E217DF91CF911F9124
:101EB0000F91FF90EF90DF90CF90BF90AF909F90E9
:101EC0008F900C945D16812F0E946818DACFFC2F3A
:101ED000FF70FF2EC07FC03219F0F29480EFF8221D
:101EE000DD2339F0D13089F10023C1F1112329F02C
:101EF000B2CF0023A1F0111104C08F2D0E94C20E99
:101F0000C2CF113021F48F2D0E948418BCCF143021
:101F1000A1F70E948D188F2D0E94B917EECF1111D5
:101F200006C00E948D188F2D0E94C90EACCF1130B3
:101F300041F40E944E188F2109F4A5CF0E94BC17CE
:101F4000F0CF143009F49FCFECCF002321F01230F2
:101F500008F099CFD2CF111196CFE5CF112319F305
:101F60008D2F0E94730E8FCF8C2F86958695837050
:101F700079F08130B9F0E8E0FE1609F49BC0FE1656
:101F800008F481CF86EF8F0D823008F493C07BCFA9
:101F90008D2F9C2F9370011102C090E080E00E9471
:101FA000500C71CF8D2F9C2F9370011102C090E0C7
:101FB00080E00E94660C67CF002309F1D53F99F0BD
:101FC000D63FB9F0D43F49F48091020490910304C4
:101FD000816090930304809302048D2F0E94CC1A99
:101FE0000E94B81B50CF809102049091030482603C
:101FF000F0CF80910204909103048460EACFD53F32
:1020000089F0D63FA9F0D43F49F480910204909121
:1020100003048E7F90930304809302048D2F0E940B
:10202000341BDECF80910204909103048D7FF2CFA8
:1020300080910204909103048B7FECCF8C2F8370EE
:1020400009F04BC0011136C02D2F2295269527701F
:10205000220F220F6D2F6F70862E912CB12CA12C88
:10206000022E04C0880C991CAA1CBB1C0A94D2F72F
:1020700060E070E0CB01D4FF0FC06FE070E080E063
:1020800090E004C0660F771F881F991F2A95D2F72A
:102090006095709580959095C695C695C370C23031
:1020A00071F0A0F4682979298A299B29C13091F01F
:1020B0000E94F0150E942E0C0E94CC05E4CE6829E7
:1020C00079298A299B290E940216F4CF0E94F015D3
:1020D000C501B4010E94DE15EDCF8695002311F0F5
:1020E0008C2F8170882331F32D2F22952695277010
:1020F000220F220F6D2F6F70862E912CB12CA12CE8
:10210000022E04C0880C991CAA1CBB1C0A94D2F78E
:1021100060E070E0CB01D4FF0FC06FE070E080E0C2
:1021200090E004C0660F771F881F991F2A95D2F789
:102130006095709580959095C695C695C370C23090
:1021400051F080F4682979298A299B29C13071F0DE
:102150000E94B316AFCF682979298A299B290E944A
:10216000C516A8CF0E94B316C501B4010E94A116DE
:10217000A1CFE0E2ED0FE53108F07FC0F0E0ED53D4
:10218000FF4E0C945D23D810D810D810D810D8105A
:10219000D810D810D810D810D810D810D810D810FF
:1021A000D810D810D810E910F610FD1004110E1137
:1021B000DF708C2F8F71002331F00E943C168D2F21
:1021C0000E94C20ED8CE0E945D168D2F0E94C90EAD
:1021D000D2CE002339F01111CECE8C2F8F710E94F8
:1021E0008016C9CE123008F0C6CEF7CF8C2F8F7173
:1021F000002339F00E943C16BECE8C2F8F71002335
:10220000C9F30E945D16B7CE002329F08C2F8F7181
:102210000E942716B0CE0E942216ADCE0023D9F020
:102220000E94B6170E9457180E94E817843041F4A4
:102230000E9426188C2F8F710E945D16E12C3ACFD8
:102240001430E0F7CF718C2F0E943C1663E08C2F86
:102250000E941618F3CF0E94B6170E94511814302E
:1022600040F00E9426180E94BC1764E08C2F8F71EA
:10227000EFCF81E00E942D18E1CF002349F0112318
:1022800021F08D2F0E947C0D76CE8C2F8F71B2CFD6
:10229000112379F0D93349F42FEF87EE93E02150E1
:1022A00080409040E1F700C000008D2F0E94730E27
:1022B00062CE8C2F8F71A5CF4C2F4F706D2FC60122
:1022C0000E945C030E945615DECD4C2F4F706D2F7F
:1022D000C6010E94CE05D7CDDF91CF911F910F91FE
:1022E000FF90EF90DF90CF90BF90AF909F908F9036
:1022F00008950F931F93CF93DF93EC019881898109
:102300002B813C81232B39F08F3F19F481E09F3FD3
:1023100019F080E001C081E080FD17C0CE010E946D
:102320003404882391F0688179818A810E947E1724
:102330008C010E94D7160E94DB15B801CE01DF91F7
:10234000CF911F910F910C94D00EDF91CF911F91DF
:102350000F9108950E9470180E9481180E94B01772
:102360000E9494180E944E1C0E94B81B90E080E0CE
:102370000E94500C90E080E00C94660C0E945F1864
:102380000C94AA110E947417E92FE295EF70E250A5
:10239000EE30E0F4F0E0E153FE4E0C945D23DD11ED
:1023A000DD11E611E611E811E611E611E611DD1185
:1023B000DD11ED11E611E611ED11803F19F020F469
:1023C000803E20F481E00895843FE1F380E00895A9
:1023D000803EC0F3813FD1F7F5CF93FB882780F98A
:1023E0000895CF93DF9300D000D01F92CDB7DEB712
:1023F0000F900F900F900F900F90DF91CF91089555
:10240000CF93DF9300D000D000D0CDB7DEB72696B3
:102410000FB6F894DEBF0FBECDBFDF91CF91089508
:102420001F93CF93DF93C0917A0316E080917B03D3
:102430008C1304C0DF91CF911F910895D0E01C9FB1
:10244000F0011D9FF00D1124E458FC4F4081518193
:1024500062817381848195810E9400122196C770E8
:10246000E5CF4091AC035091AD036091AE03709104
:10247000AF038091B0039091B1030C9400122091AE
:102480007A0390917B0356E0291302C080E00895FF
:1024900030E0529FF001539FF00D1124E458FC4F9F
:1024A0007181761306C07081781303C07281741332
:1024B00004C02F5F3F4F2770E7CF81E008951F933F
:1024C000CF93DF938091B103807FD1F48091AE03ED
:1024D0008823B1F080917A03D0917B03B091AC0353
:1024E000C091AD034091AF035091B003A1E0BF3F55
:1024F00009F0A0E0BA016095709516E0D81304C009
:10250000DF91CF911F91089521E04115510521F0F0
:102510002A2FCF3F09F020E090E020FD38C0189F1F
:10252000F001199FF00D1124E458FC4F21812C1368
:102530002EC020812B132BC02281211128C0238182
:1025400034812417350700F1241B350B2C32314020
:10255000F0F42091B1032F7020612093B10326E0A5
:10256000289FF001299FF00D1124EF57FC4F808127
:102570008F70806180838CEA93E00E947911DF91F3
:10258000CF911F910C941012260F371FDFCF0196A9
:102590008770B4CF9F92AF92BF92CF92DF92EF92AB
:1025A000FF920F931F93CF93DF93CDB7DEB7619761
:1025B0000FB6F894DEBF0FBECDBF8C0185E0F801E9
:1025C000DE011D9601900D928A95E1F7D801DC900D
:1025D0001196EC9011971296CC903091AC034091EB
:1025E000AD038091AF039091B00321E0009731F0EB
:1025F0004F3F19F421E03F3F09F020E020FD9FC14B
:10260000F801A380B4809090AE03992009F443C1EF
:10261000A816B90658F0B501681B790BCB01FF2449
:10262000F3948C32914058F0F12C09C0809590952C
:102630008A0D9B1DFF24F3948C329140A8F7809162
:10264000B103982F907FFF2009F4DCC0911197C04F
:10265000FC2C4E1125C03D1123C0C11021C08F702C
:1026600080618093B1030E9431128CEA93E00E9452
:1026700079118091B103F80185838F2D61960FB692
:10268000F894DEBF0FBECDBFDF91CF911F910F91A8
:10269000FF90EF90DF90CF90BF90AF909F90089504
:1026A00081E0A114B10431F0FFEFEF1202C081E02C
:1026B000DF1280E080FD1AC081E08C2580FF18C009
:1026C0004C2D6E2D8D2D0E943F12882389F08CEAAF
:1026D00093E00E94791186E0ECEAF3E0DF011D92BD
:1026E0008A95E9F70E943112F12CC7CF80E0E6CF3E
:1026F00081E0AB2831F0BFEFEB1202C081E0DB12CA
:1027000080E080FD25C081E08C25E82FE170AE2EB1
:1027100080FF2CC04C2D6E2D8D2D0E943F12B82EA7
:10272000811124C0DD86EE868D859E850E947417FA
:10273000292F22952F70223068F0243090F49F705A
:1027400069F0D80115969C91907F41F4FB2C95CFB0
:1027500080E0DBCF9F7011F08823C1F3805E88306A
:10276000A8F3C8010E947911BA2CF0CFCC2009F44B
:1027700084CF8091B10381608093B103B5CF4E11B6
:1027800014C03D1112C0C11010C0F8018583C801EA
:102790000E94791186E0F801ACEAB3E001900D9255
:1027A0008A95E1F70E94311268CFDD86EE868D852D
:1027B0009E850E94C211882309F4CBC0CC2009F465
:1027C000C8C08091B103803270F02091AC03309189
:1027D000AD0338872F831986BB86AA868C87CE01E6
:1027E00007960E94791186E0F801ACEAB3E0019007
:1027F0000D928A95E1F70E945F120E943112FF2428
:10280000F3943BCF911115C07A2DB98AA88A4D2D2A
:102810005E2D6C2D89890E94F1118CEA93E00E9453
:10282000791186E0ECEAF3E0DF011D928A95E9F781
:10283000B9CF4E1112C03D1110C0C1100EC0F80129
:102840008583C8010E947911ECEAF3E086E0DF019C
:102850001D928A95E9F7F92C10CFDD86EE868D85DD
:102860009E850E94C211882309F473C0CC2009F40C
:1028700070C08091B103803208F4B5CF2091AC03D1
:102880003091AD033A8329831B82BD82AC828E8353
:10289000CE010196A6CFA816B90690F0F501E81B67
:1028A000F90BCF018C32914090F0F12C7A2DB98A3E
:1028B000A88A4D2D5E2D6C2D89890E94F111B1CF12
:1028C000809590958A0D9B1D8C32914070F7FC2C61
:1028D000CC2009F43EC04E1121C03D111FC0809193
:1028E000B10380FD12C0982F907F79F0D801159622
:1028F0008C931597903F09F44ACF982F907F905F63
:102900008F70892B15968C9342CF86E0F801ACEA44
:10291000B3E001900D928A95E1F7AFCEDD86EE86A9
:102920008D859E850E94C21181115DCF8091B1037A
:1029300081608093B103C8010E9479119ECECC20A2
:1029400041F0DD86EE868D859E850E94C211811143
:102950004ACFC8010E94791152CF1F93CF93DF93C2
:10296000CDB7DEB72C970FB6F894DEBF0FBECDBF44
:102970004F83588769877A878B879C87CE01079614
:102980000E94CA12882309F442C09F8188852A8543
:102990003B85232B39F08F3F19F481E09F3F19F0DD
:1029A00080E001C081E080FD08C04F8158856985C5
:1029B0007A858B859C850E94001216E080917A03AF
:1029C00090917B03891709F467C0819FC00111248E
:1029D00084589C4F0E94CA12882309F45DC0E0917C
:1029E0007A031E9FF0011124E458FC4F408151816D
:1029F00062817381848195810E94001280917A03A3
:102A000090E001968770992780937A03D7CF86E06C
:102A1000FE013796DE01119601900D928A95E1F73D
:102A20009F8188852A853B85232B39F08F3F19F4B8
:102A300081E09F3F19F080E001C081E080FDBDCFC3
:102A400020917B0330E0C90101968770992740915E
:102A50007A034817190699F096E0929FD001939F48
:102A6000B00D1124A458BC4FFE01319601900D9277
:102A70009A95E1F780937B030E9410129ECF0E94EB
:102A8000BE1110927B0310927A0386E0ECEAF3E029
:102A9000DF011D928A95E9F72C960FB6F894DEBFF8
:102AA0000FBECDBFDF91CF911F910895EF92FF929E
:102AB0000F931F93CF93DF938C01892B81F0F12C1F
:102AC000EE24E394E8012196F8018491843770F4B0
:102AD000843008F05FC08130B1F08230A1F1DF9125
:102AE000CF911F910F91FF90EF900895853709F4D2
:102AF0004CC008F43DC09CE7980F903780F78F7763
:102B00000E94730E49C00E5F1F4FFE01849190E238
:102B1000980F983060F48770FE2D01C0FF0F8A95E2
:102B2000EAF78F2F0E9473180E94941802C00E9427
:102B30007C0D8F2D815030F2EFE9FFE03197F1F7F6
:102B400000C00000F7CF0E5F1F4FFE01849190E29E
:102B5000980F983050F48770FE2D01C0FF0F8A95B2
:102B6000EAF78F2F0E947918DFCF0E94730EE1CF12
:102B70000E5F1F4FFE01C491C150D8F28FE99FE054
:102B80000197F1F700C00000F7CF0E5F1F4FFE0165
:102B9000F490CFCF0E947C0D8E01CBCF08950E9480
:102BA000CE156093D4037093D5038093D60390938E
:102BB000D7030C94AA1108950C94CF150F931F936B
:102BC0000091D4031091D5032091D6033091D703FF
:102BD000602B712B822B932B1F910F910C94CF158F
:102BE0000F931F930091D4031091D5032091D60326
:102BF0003091D70360237123822393231F910F9178
:102C00000C94CF150F931F930091D4031091D5030B
:102C10002091D6033091D70360277127822793270D
:102C20001F910F910C94CF150C94CE150E94141681
:102C30006093D0037093D1038093D2039093D30316
:102C40000C94AA1160E070E0CB010C9416160F935F
:102C50001F9341E050E060E070E08A019B0104C0F6
:102C6000000F111F221F331F8A95D2F7C901B80127
:102C70001F910F910C9416160F931F9341E050E093
:102C800060E070E004C0440F551F661F771F8A95EF
:102C9000D2F78091D0039091D103A091D203B0914B
:102CA000D3038A019B01082B192B2A2B3B2BC9012B
:102CB000B8011F910F910C9416160F931F9341E0CA
:102CC00050E060E070E004C0440F551F661F771F9E
:102CD0008A95D2F7CB01BA01609570958095909551
:102CE0000091D0031091D1032091D2033091D303EE
:102CF00060237123822393231F910F910C94161646
:102D00000F931F9341E050E060E070E004C0440F77
:102D1000551F661F771F8A95D2F78091D003909137
:102D2000D103A091D203B091D3038A019B0108275C
:102D300019272A273B27C901B8011F910F910C942D
:102D400016160F931F930091D0031091D103209179
:102D5000D2033091D303602B712B822B932B1F91C5
:102D60000F910C9416160F931F930091D00310919E
:102D7000D1032091D2033091D303602371238223A6
:102D800093231F910F910C9416160F931F9300918C
:102D9000D0031091D1032091D2033091D303602747
:102DA0007127822793271F910F910C94161608956F
:102DB0002BE0929F800D1124982F977071E001C035
:102DC000770F9A95EAF786958695869525E0829FF6
:102DD000C001112450E040E0A62FB0E0FC01E40F58
:102DE000F51FEE54FC4F60819D01042E02C0369504
:102DF00027950A94E2F72170219526272723262775
:102E000020834F5F5F4F4530510541F708952BE018
:102E1000929F800D1124982F9770869586958695A0
:102E200025E0829FA001112470E060E080E0FA01BB
:102E3000E60FF71FEE54FC4F208130E0092E02C050
:102E4000369527950A94E2F721703327062E01C0A4
:102E5000220F0A94EAF7822B6F5F7F4F653071056E
:102E600031F70895BF92CF92DF92EF92FF920F93C6
:102E70001F93CF93DF938C01C090D003D090D103E8
:102E8000E090D203F090D3038091D4039091D503C6
:102E9000A091D603B091D703C82AD92AEA2AFB2ADF
:102EA000CFE1D0E0BC2ED701C6010C2E04C0B695F0
:102EB000A795979587950A94D2F780FD0EC0219724
:102EC00088F7B12C8B2DDF91CF911F910F91FF903F
:102ED000EF90DF90CF90BF900895B8018C2F0E94A3
:102EE000EB05019761F3EECFCF93DF93EC010E94E6
:102EF0003217BE01DF91CF910C94EB051F93CF9356
:102F0000DF93EB0190917903992331F0CB01DF91AD
:102F1000CF911F910C947417882379F0CB010E94F4
:102F20003217182F682FCE010E94D816BE01812FAC
:102F3000DF91CF911F910C94EB05CB010E940717F5
:102F4000182FF4CF682F80910E0390910F030C94EB
:102F50003B19682F80910E0390910F030C943D193B
:102F600080910E0390910F030C943F198091DD0323
:102F700008958093DD0308951092DD0308950E9463
:102F8000C3192091DB033091DC038217930778F09B
:102F90000E94C3192091DB033091DC03821B930B49
:102FA0009C0181E02032334008F480E008950E94C3
:102FB000C3192091DB033091DC0320953095280F55
:102FC000391FEFCF8091DA03859585958595089512
:102FD0008091DA03877008950E94C3192091D80365
:102FE0003091D90382179307B0F00E94C319209142
:102FF000D8033091D903821B930B8032934018F48D
:1030000080E0817008958091DA0382FB882780F93F
:1030100091E08927F6CF0E94C3192091D8033091FF
:10302000D90320953095820F931FE7CF98E0899FB1
:1030300090011124622B6093DA030E943C160E94D7
:10304000C3199093D9038093D80308951092DA039B
:103050001092D9031092D80308959091DA038095C5
:1030600089238093DA03282F277081F4282F082ED4
:10307000000C330B9217130649F0859585958595BD
:103080000E945D161092D9031092D8030895909172
:10309000DA03977081E009F480E008958091E903F4
:1030A00008959091E903892B8093E9030895982F5F
:1030B00090958091E90389238093E9030895109204
:1030C000E90308959091E803892B8093E80308951C
:1030D000982F90958091E80389238093E8030895C1
:1030E0001092E80308959091E703892B8093E703FA
:1030F0000895982F90958091E70389238093E703A3
:1031000008951092E70308958093DE030E94C31987
:103110009093DC038093DB0308951092DE031092FA
:10312000DC031092DB030895E0910E03F0910F038E
:103130008091E9038083E0910E03F0910F03808179
:103140009091E803892B8083E0910E03F0910F03A7
:1031500080819091E703892B80838091DE0388230F
:10316000B9F00E94BF1781110E948D18E0910E03E3
:10317000F0910F0380819091DE03892B80838091F1
:103180000E0390910F030E94071981110E948D1860
:1031900080910E0390910F030C943A0C8091DE0302
:1031A00008956DEE7EEF90E080E00E94972360E04E
:1031B00082E090E00E94852360E083E090E00E943E
:1031C000852360E084E090E00E94852360E085E054
:1031D00090E00C94852390E080E00E947F2321E022
:1031E0008D3E9E4F09F020E0822F089582E090E00E
:1031F0000C94772383E090E00C94772384E090E0B4
:103200000C947723682F84E090E00C948523FC01D4
:1032100031969C01285F3F4F80E0919191118F5F23
:10322000E217F307D1F708959C01FC0132969FEF56
:1032300080E04191461751F09F3F19F4411101C0C0
:10324000982F8F5F8630A9F79F3F09F40895290FC3
:10325000311D97FD3A95F90162830895FC0132967C
:1032600008962191261303C0DF0111971C92E817DD
:10327000F907B9F708950C9414190C942E19FC0150
:103280001182128213821482158216821782089587
:1032900080910E04843039F11092EB0388E190E0C4
:1032A00020E40FB6F894A895809360000FBE209399
:1032B000600080E00E94CC0583B7817F846083BF7B
:1032C00083B7816083BF7894889583B78E7F83BFEF
:1032D0000FB6F894A8958091600088618093600093
:1032E000109260000FBE089508950895CF930E9434
:1032F00074190E94E9080E947519C0E08C2F0E9481
:10330000AA09892B31F4CF5FC430C1F780E0CF9197
:10331000089581E0FCCF0E94BE110E942E0C0C94F7
:10332000CC051F920F920FB60F9211248F939F938B
:10333000AF93BF938091EB03811113C0809104047C
:1033400090910504A0910604B09107044196A11D37
:10335000B11D8093040490930504A0930604B093D8
:103360000704BF91AF919F918F910F900FBE0F9067
:103370001F90189582E084BD93E095BD9AEF97BDAC
:1033800080936E0008952FB7F89480910404909173
:103390000504A0910604B09107042FBF0895CF92B1
:1033A000DF92EF92FF920F931F932FB7F894409103
:1033B00004045091050460910604709107042FBF26
:1033C0006A017B01EE24FF248C0130E020E0C0166E
:1033D000D106E206F30650F0481B590BCA011F91B3
:1033E0000F91FF90EF90DF90CF90089541505109D9
:1033F000F3CF78941F920F920FB60F9211248F93F0
:103400009F93AF93BF938091040490910504A09182
:103410000604B09107040196A11DB11D8093040418
:1034200090930504A0930604B0930704BF91AF9155
:103430009F918F910F900FBE0F901F90189587E767
:1034400097E7909301088093000888E19AE00FB60F
:10345000F894A895809360000FBE90936000FFCF12
:103460000E94EB18811102C00E94D1180E94F61828
:103470008093EA030E94FE1890E0909309048093E1
:1034800008040E94FA18682F70E090E080E00C9425
:10349000DC158091EF0380FF12C06091130385E07B
:1034A000689FB0011124759567957595679560388B
:1034B0007105A8F561157105A1F1862F089581FFA9
:1034C00009C06091130385E0689FB00111247595D0
:1034D0006795EDCF82FF07C06091130385E0689F79
:1034E000B0011124E4CF2091F0032223A9F09091A0
:1034F00012036091130385E0689FB001112429171E
:10350000B0F6269FA001279F500D1124692F70E06F
:10351000CA010E944923CBCF65E070E0CECF8FE790
:10352000089581E008958091EF0380FF0CC06091C1
:10353000110370E07595679575956795611571052F
:1035400049F1862F089581FF06C06091110370E054
:1035500075956795F3CF6091110382FD0BC0909133
:10356000F0039923A1F06091100380911103961745
:1035700038F0682F70E06038710500F38FE7089528
:10358000899FC001112470E00E944923F4CF61E0BB
:1035900070E0D7CF81E00895803F31F40E94491A4E
:1035A00081958093F3030895813F19F40E94491A8D
:1035B000F8CF823F31F40E94491A81958093F2033B
:1035C0000895833F19F40E94491AF8CF893F29F4DE
:1035D0000E94931A8093F40308958A3F21F40E9475
:1035E000931A8195F7CF8B3F31F40E94931A8195FE
:1035F0008093F50308958C3F19F40E94931AF8CF35
:10360000843F31F48091F10381608093F103089548
:10361000853F21F48091F1038260F7CF863F21F44A
:103620008091F1038460F1CF873F21F48091F10311
:103630008860EBCF883F21F48091F1038061E5CF72
:103640008D3F31F48091EF0381608093EF03089503
:103650008E3F21F48091EF038260F7CF8F3FB9F75F
:103660008091EF038460F1CF803FC1F48091F30338
:1036700087FD1092F3038091F20381110EC08091B7
:10368000F30381110AC08091F403811106C0809177
:10369000F503811102C01092F0030895813F29F4CF
:1036A0008091F30318162CF3E6CF9091F203823F3A
:1036B00029F497FFE0CF1092F203DDCF833F19F496
:1036C0001916CCF3D8CF893F39F48091F40318163A
:1036D00094F61092F403CFCF8A3F29F48091F4033B
:1036E00087FFC9CFF6CF8B3F39F48091F50387FF71
:1036F000C2CF1092F503BFCF8C3F29F48091F50320
:103700001816BCF3B8CF843F31F48091F1038E7F5B
:103710008093F103B0CF853F21F48091F1038D7F39
:10372000F7CF863F21F48091F1038B7FF1CF873F64
:1037300021F48091F103877FEBCF883F21F48091C2
:10374000F1038F7EE5CF8D3F31F48091EF038E7FC3
:103750008093EF0390CF8E3F21F48091EF038D7F14
:10376000F7CF8F3F09F087CF8091EF038B7FF0CFAA
:1037700081EF93E00E94450C0E94C3199093ED03E2
:103780008093EC0308951F93CF93DF938091EC0314
:103790009091ED030E94CF19AC019091F00320911C
:1037A000140330E0911106C02091EE038AE0289FB7
:1037B000900111244217530780F08091F203109179
:1037C000F303D091F403C091F50381110AC01111E4
:1037D00061C0D1115FC0C1115DC0DF91CF911F9158
:1037E00008959F3F19F09F5F9093F003181624F4FB
:1037F0000E94491A8093F2038091F20387FF05C06B
:103800000E94491A81958093F203111624F40E94B4
:10381000491A8093F3038091F30387FF05C00E9448
:10382000491A81958093F3034091F203442379F080
:103830003091F303332359F025EB4203A001112407
:103840005093F2033203900111243093F3031D16B9
:1038500024F40E94931A8093F4038091F40387FF69
:1038600005C00E94931A81958093F4031C1624F4DA
:103870000E94931A8093F5038091F50387FF05C09A
:103880000E94931A81958093F503DF91CF911F9148
:103890000C94B81B9F3F09F0A6CFB7CF85E0E1EFAE
:1038A000F3E0DF011D928A95E9F71092F003109280
:1038B000EF0308958091FE0308950F931F93CF9314
:1038C000DF9300D01F92CDB7DEB78C010E949A1E05
:1038D000823011F0843019F583E089831B830A83D9
:1038E0008093E9008FEF9091E800815095FD06C02C
:1038F00095ED9A95F1F700008111F5CF8091E800E0
:1039000085FF0DC050E040E063E070E0CE0101961D
:103910000E94B71E8091E8008E778093E8000F9098
:103920000F900F90DF91CF911F910F910895CF933A
:10393000DF9300D01F92CDB7DEB720910E04243064
:1039400031F522E02983805891099B838A8383E0A3
:103950008093E9008FEF9091E800815095FD06C0BB
:1039600095ED9A95F1F700008111F5CF8091E8006F
:1039700085FF0DC050E040E063E070E0CE010196AD
:103980000E94B71E8091E8008E778093E8000F9028
:103990000F900F90DF91CF910895CF93DF93EC01BB
:1039A0000E949A1E823011F08430F9F482E08093F4
:1039B000E9008FEF9091E800815095FD06C095EDEC
:1039C0009A95F1F700008111F5CF8091E80085FF0D
:1039D0000CC050E040E065E070E0CE010E94B71EF0
:1039E0008091E8008E778093E800DF91CF91089571
:1039F000CF93DF93EC010E949A1E823011F0843045
:103A000039F581E08093E9008FEF9091E8008150D3
:103A100095FD06C095ED9A95F1F700008111F5CF5F
:103A20008091E80085FF14C050E040E068E070E05D
:103A3000CE010E94B71E8091E8008E778093E80047
:103A400088E0FE01A6EFB3E001900D928A95E1F7C0
:103A5000DF91CF91089580910D04811109C00E94DA
:103A600047200E94A4208091E20084608093E200BD
:103A7000089510920D040895089508950C948B19DB
:103A800042E061EC81E00E94C51F42E061EC82E00F
:103A90000E94C51F42E061EC83E00C94C51F809139
:103AA0001004833009F452C030F4813059F182306F
:103AB00009F48EC008958A3009F47AC08B3009F475
:103AC00060C0893009F041C080910F048132E9F56E
:103AD0008091130490911404892BB9F58091E8002A
:103AE000877F8093E8008091E80082FF2AC0809160
:103AF000F1008093FE038091E8008B778093E800CB
:103B00000C94F91F80910F04813AF9F48091E80038
:103B1000877F8093E8008091130490911404892B8F
:103B200061F468E086EF93E070E00E94061F8091E8
:103B3000E8008B778093E800089560E090E080E0F3
:103B4000F3CF80910E048111CECF089580910F04A0
:103B5000813AD9F78091130490911404892BA9F725
:103B60008091E800877F8093E8008091E80080FFE3
:103B7000FCCF80911F038093F1008091E8008E7745
:103B8000BDCF80910F04813201F780911304909191
:103B90001404892BD1F68091E800877F8093E80098
:103BA0000E94F91F8091110480931F030C94BE1191
:103BB00080910F04813249F68091E800877F8093DD
:103BC000E8000E94F91F809112048093FF0308957A
:103BD00080910F04813A09F0B8CF8091E800877F87
:103BE0008093E8008091E80080FFFCCF8091FF0384
:103BF000C2CF84B7877F84BF0FB6F894A895809111
:103C00006000886180936000109260000FBE80E8C1
:103C100080936100109261000E947D0C0E944720F9
:103C20000E94A4208091E20084608093E200789456
:103C30000E942D230E94810C85E193E00E94290CB3
:103C400080910E04853019F00E94870CF9CF0E94F4
:103C5000481980910C04882399F30E9476198823CF
:103C600079F30E94A11EECCF292F33272330310591
:103C700079F158F421303105F1F02230310519F194
:103C800090E080E030E020E01AC02132310599F167
:103C900022323105A9F76330710590F7FB01EE0F71
:103CA000FF1FEE5CFC4F20813181615D7C4FFB0189
:103CB000808190E004C082E190E02BE435E0FA01DD
:103CC00031832083089584E590E027EF34E0F7CF37
:103CD00099278130910561F028F0029789F6E9EC87
:103CE000F4E002C0E3EFF4E0849190E09F01E7CFBD
:103CF000E9EDF4E0F9CF6330710508F0C1CF660F4C
:103D0000771FFB01E85CFC4F2081318189E090E066
:103D1000D6CF0895CF93C82F0E94891EC093000468
:103D2000CF91089580910E04843011F081E00895C0
:103D300082E0089580910004811102C00C94921ECB
:103D4000089580E189BD82E189BD09B400FEFDCFFF
:103D50008091D8008F7D8093D8008091E0008260B0
:103D60008093E0008091E00081FDFCCF0895AF9248
:103D7000BF92CF92DF92FF920F931F93CF93DF9367
:103D80006C01EB018A010E941820F82E811123C0DA
:103D90000115110539F0F80180819181C81BD90BFB
:103DA000C80ED91EB12CA12C2097A9F08091E80053
:103DB00085FD22C08091E8008E778093E800011590
:103DC0001105A1F0F80180819181A80EB91EB18280
:103DD000A08285E0F82E8F2DDF91CF911F910F915A
:103DE000FF90DF90CF90BF90AF9008950E94182071
:103DF0008823D1F2F82EEFCFF60181916F018093E5
:103E0000F1002197FFEFAF1ABF0ACECFFC018091DE
:103E100015049091160486179707A0F06115710597
:103E200029F49091E8009E779093E80090E0611566
:103E3000710551F4911108C08091E80082FF35C0EE
:103E400080E00895BC01F2CF80910E048823C9F16F
:103E50008530C9F18091E80083FD31C08091E80090
:103E600082FDEACF8091E80080FFE1CF2091F3004E
:103E70008091F200322F282F6115710519F028303A
:103E8000310558F091E02830310509F090E020919B
:103E9000E8002E772093E800CACF81918093F1004B
:103EA000615071092F5F3F4FE7CF80910E04882347
:103EB00041F0853041F08091E80083FFBDCF81E083
:103EC000089582E0089583E00895FC01809115042F
:103ED0009091160486179707A0F06115710529F4D3
:103EE0008091E8008E778093E80090E0611571057D
:103EF00051F4911108C08091E80082FF36C080E043
:103F00000895BC01F2CF80910E048823D1F1853051
:103F1000D1F18091E80083FD32C08091E80082FDFC
:103F2000EACF8091E80080FFE1CF2091F3008091FB
:103F3000F200322F282F6115710519F02830310554
:103F400058F091E02830310509F090E08091E800C8
:103F50008E778093E800CACF84918093F1003196E8
:103F6000615071092F5F3F4FE6CF80910E04882387
:103F700041F0853041F08091E80083FFBCCF81E0C3
:103F8000089582E0089583E00895982F973028F0EF
:103F90008F708093E90081E008959093E900242FC9
:103FA000762F50E0981731F07091EC002091ED00E1
:103FB0005091F00021FD02C09F5FE8CF3091EB00EF
:103FC0003E7F3093EB003091ED003D7F3093ED006C
:103FD0003091EB0031603093EB007093EC00209354
:103FE000ED005093F0002091EE0027FDE5CF80E03A
:103FF000089580910F0487FF13C08091E80082FF2D
:1040000006C08091E8008B778093E80004C080911F
:104010000E048111F2CF089580910E048823D9F304
:104020008091E80080FFF8CF8091E8008E77ECCF98
:104030002091E4003091E50085E69091EC0090FF3E
:1040400006C09091E80090FF06C080E0089590912E
:10405000E80092FDFACF90910E04992391F09530EB
:1040600091F09091EB0095FD10C04091E4005091CB
:10407000E5002417350709F381509A01F1F684E031
:10408000089582E0089583E0089581E008950E94F4
:10409000B5200E94BD20E0EEF0E080818160808349
:1040A000E8EDF0E080818F77808319BCA7EDB0E068
:1040B0008C918E7F8C9380818F7E808310920D04F3
:1040C00008950F931F93CF93DF930E94B5200E9412
:1040D000BD20C8EDD0E088818F7788838881806893
:1040E000888388818F7D888319BC10920E0410927A
:1040F0000A0410920C0410920B0400EE10E0F80178
:1041000080818B7F808388818160888342E060E04A
:1041100080E00E94C51FE1EEF0E080818E7F808309
:10412000E2EEF0E08081816080838081886080831E
:10413000F80180818E7F8083888180618883DF9110
:10414000CF911F910F910895E8EDF0E080818F7E6F
:104150008083E7EDF0E080818160808384E082BF2E
:1041600081E080930D040C946120E8EDF0E0808103
:104170008E7F80831092E20008951092DA001092F0
:10418000E10008951F920F920FB60F9211242F9302
:104190003F934F935F936F937F938F939F93AF93CF
:1041A000BF93EF93FF938091E10082FF0BC080915A
:1041B000E20082FF07C08091E1008B7F8093E100E5
:1041C0000E942C238091DA0080FF19C08091D800D2
:1041D00080FF15C08091DA008E7F8093DA00809195
:1041E000D90080FF94C080E189BD82E189BD09B416
:1041F00000FEFDCF81E080930E040E942B1D809174
:10420000E10080FF19C08091E20080FF15C080911D
:10421000E2008E7F8093E2008091E20080618093D3
:10422000E2008091D80080628093D80019BC85E0BC
:1042300080930E040E943D1D8091E10084FF29C0FF
:104240008091E20084FF25C080E189BD82E189BDC3
:1042500009B400FEFDCF8091D8008F7D8093D800F7
:104260008091E1008F7E8093E1008091E2008F7E5B
:104270008093E2008091E20081608093E20080916F
:104280000A04882309F449C084E080930E040E9444
:104290003E1D8091E10083FF29C08091E20083FFF1
:1042A00025C08091E100877F8093E10082E08093C8
:1042B0000E0410920A048091E1008E7F8093E10049
:1042C0008091E2008E7F8093E2008091E200806125
:1042D0008093E20042E060E080E00E94C51F809190
:1042E000F00088608093F0000E943C1DFF91EF91E8
:1042F000BF91AF919F918F917F916F915F914F91FE
:104300003F912F910F900FBE0F901F90189519BCE1
:1043100010920E040E94391D72CF8091E30087FD38
:1043200002C081E0B2CF83E0B0CF1F920F920FB6F0
:104330000F9211242F933F934F935F936F937F932B
:104340008F939F93AF93BF93CF93EF93FF93C091BE
:10435000E900CF708091EC001092E9008091F000AC
:10436000877F8093F00078940E94D1211092E90019
:104370008091F00088608093F000C093E900FF9185
:10438000EF91CF91BF91AF919F918F917F916F915D
:104390005F914F913F912F910F900FBE0F901F9003
:1043A00018951F93CF93DF93CDB7DEB7AA970FB6BB
:1043B000F894DEBF0FBECDBFEFE0F4E08091F100D6
:1043C000819324E0E731F207C9F70E944F1D8091E5
:1043D000E80083FF44C080910F04909110049A304C
:1043E00008F03DC0E92FF0E0E850FE4D0C945D234D
:1043F000022228222F2228222F228622A8222F22A0
:10440000FF220C23803889F0823849F5809113040B
:104410008F70873020F58093E9008091EB0085FB59
:10442000882780F91092E90006C080910B049091D2
:104430000C04911182609091E800977F9093E800BE
:104440008093F1001092F1008091E8008E772DC0EA
:10445000282F2D7F21F48823D1F0823059F18091CB
:10446000E80083FF0AC08091E800877F8093E8001E
:104470008091EB0080628093EB00AA960FB6F894CF
:10448000DEBF0FBECDBFDF91CF911F910895809108
:104490001104813021F7933009F080E080930C04FF
:1044A0001092E9008091E800877F8093E8000E94E5
:1044B000F91FD5CF809111048111F2CF809113049F
:1044C0008F702FEF280F263050F68093E90020914F
:1044D000EB0020FFE5CF933031F48091EB00806258
:1044E0008093EB00DDCF9091EB0090619093EB0017
:1044F00021E030E001C0220F8A95EAF72093EA001C
:104500001092EA008091EB008860EACF8111A7CF7A
:10451000109111041F778091E3008078812B8093A4
:10452000E3008091E800877F8093E8000E94F91FF4
:104530008091E80080FFFCCF8091E3008068809349
:10454000E30083E0111101C082E080930E0487CF65
:104550008058823008F083CF80911104909112042A
:104560008C3D23E09207A1F583E08A838AE2898368
:104570004FB7F894DE01139620E03EE051E2E32FBE
:10458000F0E050935700E49120FF03C0E295EF70F4
:104590003F5FEF708E2F90E0EA30C0F0C7968D93AA
:1045A0009D932F5F243159F74FBF8091E800877F9B
:1045B0008093E8006AE270E0CE0101960E94061F37
:1045C0008091E8008B778093E80049CFC096E7CFD1
:1045D0006091130470911404AE014F5F5F4F0E940D
:1045E000341EBC01892B09F43ACF9091E800977FE3
:1045F0009093E80089819A810E94651FE1CF8038FD
:1046000009F02DCF8091E800877F8093E8008091AA
:104610000A048093F10018CF811121CF90911104E9
:10462000923008F01CCF8091E800877F8093E800EB
:1046300090930A040E94F91F80910A04882331F0A4
:1046400084E080930E040E94401D09CF8091E30016
:1046500087FDF6CF81E0F5CF0895CF9380910E04CA
:10466000882399F0C091E900CF708091EC0080FD23
:104670000EC080E0C82B1092E9008091E80083FD15
:104680000E94D121CF70C093E900CF91089580E8B6
:10469000F1CF97FB072E16F4009407D077FD09D0D1
:1046A0000E94632307FC05D03EF4909581959F4FAF
:1046B0000895709561957F4F0895EE0FFF1F059047
:1046C000F491E02D0994AA1BBB1B51E107C0AA1F5E
:1046D000BB1FA617B70710F0A61BB70B881F991FA3
:1046E0005A95A9F780959095BC01CD010895F99947
:1046F000FECF92BD81BDF89A992780B50895A8E1B3
:10470000B0E042E050E00C949F23262FF999FECFB1
:1047100092BD81BDF89A019700B4021639F01FBA14
:1047200020BD0FB6F894FA9AF99A0FBE0895019633
:10473000272F0E9486230C948523DC01CB01FC01EA
:10474000F999FECF06C0F2BDE1BDF89A319600B4EA
:0E4750000D9241505040B8F70895F894FFCFF5
:10475E000000EB0AFB0A0000000000000000000051
:10476E000009030000EB0AFB0A0000000000000035
:10477E000000000005030000EB0AFB0A0000000029
:10478E000000000000000001030000EB0AFB0A001D
:10479E0000000000000000000000FD02000000000C
:1047AE0000000000000000000000000000000000FB
:1047BE0000EB0AFB0A0000000000000000000000F1
:1047CE00F9020000EB0AFB0A0000000000000000E6
:1047DE00000000F5020000EB0AFB0A0000000000DA
:1047EE00000000000000F1020000EB0AFB0A0000CE
:1047FE00000000000000000000E9020000EB0AFBD0
:10480E000A0000000000000000000000E5020000A9
:10481E00EB0AFB0A0000000000000000000000E1AF
:10482E00020000EB0AFB0A0000000000000000007E
:10483E000000ED020000EB0AFB0A00000000000081
:10484E000000000000DD020000EB0AFB0A00000081
:10485E000000000000000000D9020000EB0AFB0A75
:10486E000000000000000000000000D5020000EB78
:10487E000AFB0A0000000000000000000000D10248
:10488E000000EB0AFB0A0000000000000000000020
:10489E0000CD020000EB0AFB0A0000000000000041
:1048AE0000000000C9020000EB0AFB0A0000000035
:1048BE0000000000000000C5020000EB0AFB0A0029
:1048CE0000000000000000000000C1020000EB0A22
:1048DE00FB0A0000000000000000000000BD020006
:1048EE0000EB0AFB0A0000000000000000000000C0
:1048FE00B9020000EB0AFB0A0000000000000000F5
:10490E00000000B50243006F0042006E0041006DD2
:10491E000040006C003F006B003E006A003D0069E5
:10492E00003C0068003B0045003A004400AB00AC80
:10493E0000360037004A004D004E004B001D001D92
:10494E00012E00280029003D04560156052F003087
:10495E00002F02300226022702AA00A800FFDF0362
:10496E00230832061E5A1CF81CCD1C971C5D1C0118
:10497E0097663534C69436F6F796379091939240F3
:0E498E004D36E00593055D05090522053B0544
:00000001FF
